:020000040800F2
:10000000C8130020ED010008CD2E00083F1B00089A
:10001000E52D0008C5080008713700080000000041
:100020000000000000000000000000009D310008FA
:10003000E908000800000000D53000089F310008E2
:10004000070200080702000807020008070200086C
:10005000070200080702000807020008070200085C
:10006000070200080702000807020008C708000886
:10007000C908000807020008070200080702000874
:10008000070200080000000007020008070200083D
:10009000070200080702000807020008070200081C
:1000A0000702000881320008070200080702000862
:1000B00007020008070200080702000807020008FC
:1000C00007020008070200080702000807020008EC
:1000D00007020008070200080137000807020008AD
:1000E00007020008070200080702000807020008CC
:1000F00007020008070200080702000800000000CD
:1001000000000000070200080000000007020008CD
:1001100007020008000000000702000807020008AC
:10012000E5080008E70800080702000807020008C1
:10013000070200080000000000000000070200089D
:10014000070200080702000800000000000000008D
:10015000000000000000000000000000000000009F
:10016000000000000000000000000000070200087E
:10017000070200080000000000000000000000006E
:10018000000000000702000800000000000000005E
:10019000000000000000000000000000000000005F
:1001A000000000000000000007020008070200082D
:1001B000070200080702000807020008000000000C
:1001C000000000000702000800000000000000001E
:1001D0000702000807020008DFF80CD000F050FB0F
:1001E00000480047DD520008C81300200648804739
:1001F00006480047FEE7FEE7FEE7FEE7FEE7FEE70C
:10020000FEE7FEE7FEE7FEE771320008D9010008CD
:10021000D2B201E000F8012B491EFBD27047002248
:10022000F6E710B513460A4604461946FFF7F0FFF5
:10023000204610BD2DE9FE4F804681EA0300C00F25
:100240000C46009021F0004123F00045B8EB02007D
:10025000A94105D24046214690461C460B4602461F
:1002600023F00040104347D0270DC7F30A00C3F323
:100270000A510290401A019040286BDAC3F3130030
:1002800040F4801B0098924620B10023D2EB030A71
:1002900063EB0B0B01985946C0F14002504600F049
:1002A000E6F806460D4650465946019A00F0EEF82B
:1002B00010EB08006141002487EA115284EAE773D9
:1002C0001A4340D0009A62B3019A012A4FEA0752BA
:1002D00015DC001B61EB02014FF0004202EA0752FD
:1002E000CDE90042001C41F5801132462B4600F05A
:1002F00025F903B0BDE8F08F40462146F9E7001B21
:1003000061EB0201001C41F5801300185B412018CD
:10031000A2F5001747EB030140EAD570B6196D410D
:1003200011E06D084FEA360645EAC0754FEA0752FC
:10033000001B61EB0201001C41F5801149084FEAE6
:1003400030000019514132462B4603B0BDE8F04F52
:1003500000F0E5B80098012240000023D0EB020233
:1003600063EBE073009821464FEAE074B8EB0000BD
:1003700061EB0401E9E783F000435BE781F00041B2
:1003800058E700F0004230F000400AD0C10D01F5FE
:100390006071C0F3160042EA0151C20840071143E0
:1003A000704700200146704701F0004330B421F04F
:1003B000004150EA010206D00A0DA2F56072C1F3B5
:1003C0001301002A02DC30BC00207047440F44EACD
:1003D000C104C100E01830BC00EBC25000F068B8A6
:1003E00030B50B46014600202022012409E021FA05
:1003F00002F59D4205D303FA02F5491B04FA02F502
:100400002844151EA2F10102F1DC30BD2DE9F05F98
:100410000546002092469B46884606468146402473
:100420001BE0284641464746224600F03BFA534629
:100430005A46C01A914110D311461846224600F080
:1004400016F82D1A67EB01084F46224601200021BD
:1004500000F00DF817EB00094E41201EA4F1010435
:10046000DFDC484631462A464346BDE8F09F202A55
:1004700004DB203A00FA02F1002070479140C2F1FB
:10048000200320FA03F3194390407047202A06DB2B
:10049000CB17203A41FA02F043EAE07306E041FA52
:1004A00002F3D040C2F12002914008431946704740
:1004B0000029A8BF7047401C490008BF20F0010078
:1004C000704710B4B0FA80FC00FA0CF050EA010456
:1004D00004BF10BC704749B1CCF1200421FA04F4E8
:1004E00011FA0CF118BF012121430843A3EB0C01C1
:1004F000CB1D4FEA00614FEA102042BF002010BC24
:10050000704700EBC35010440029A4BF10BC7047D3
:10051000401C490008BF20F0010010BC704710B516
:10052000141E73F1000408DA401C41F10001921816
:100530005B411A4301D120F0010010BD2DE9F04DBF
:1005400092469B4611B1B1FA81F202E0B0FA80F214
:1005500020329046FFF78BFF04460F4640EA0A0020
:1005600041EA0B0153465A46084313D0114653EA59
:10057000010019D0C8F14002504600F093F9054639
:100580000E46504659464246FFF771FF084305D0D4
:10059000012004E020463946BDE8F08D00200543E7
:1005A00046EAE0762C4337430A986305E40AA0EB59
:1005B00008000022FD0A44EA47540A3002D5002010
:1005C0000146E9E7010510196941DDE9084500190F
:1005D0006941BDE8F04DA2E72DE9FE4F81EA030431
:1005E00004F0004421F0004100944FF0000B23F090
:1005F000004350EA01045ED052EA03045BD0C3F327
:100600000A54C1F30A552C44A4F2F3340194A0FB1C
:100610000254C1F3130141F48011C3F3130343F4F3
:10062000801301FB024400FB034E840A970A44EA4C
:10063000815447EA8357A4FB076802958D0A05FB9E
:1006400007854FEA932C04FB0C542705029D4FEAC3
:10065000065847EA1637B5EB08056EEB070C870E10
:10066000920E47EA811742EA8312A7FB0201B6EB1A
:100670000B0164EB00042B0D43EA0C335E1844EBD2
:100680001C50DA465146E7FB0201C5F313044FEA5A
:100690000B3343EA14534FEA0432019C43EA060346
:1006A000A4F10C040294009CCDE900B4FFF746FFCE
:1006B00003B0BDE8F08F00200146F9E72DE9F04DC9
:1006C00081EA030404F0004B21F0004514464FF08A
:1006D000000A23F0004150EA050220D054EA01024A
:1006E0001DD0C5F30A570246C5F31303C1F3130027
:1006F000C1F30A5640F4801543F48013A7EB0608B3
:10070000101BD64608F2FD3873EB050002D308F142
:10071000010801E092185B41B8F1000F03DA0020F4
:100720000146BDE8F08D00204FF480110646844656
:100730000EE0171B73EB050705D3121B63EB0503D4
:1007400006434CEA010C49084FEA300092185B411D
:1007500050EA0107EDD152EA030012D082EA040008
:1007600083EA0501084305D0101BAB4106D20122E4
:10077000002306E000224FF0004302E06FF0010288
:1007800053101AEB06004CEB085110EB0A0041EB3A
:100790000B01BDE8F04DFFF7C2BE2DE9FE4FC3F3DC
:1007A0000A5701F000450024C1F30A56C3F31303AE
:1007B000C1F3130143F4801312EB020AA64641F47D
:1007C0008011009543EB030CA7F1010B16E0B0EB91
:1007D0000A0061EB0C01071E71F1000707DA4FF008
:1007E0000008D0EB080085F0004568EB0101171AFE
:1007F00073EB0107EBD3761E001849415E45F6DA2C
:1008000050EA010209D0CDE900E500221346029624
:10081000FFF794FE03B0BDE8F08F20460099F9E79A
:10082000C1F30A52C1F3130140F2FF3341F48011C6
:100830009A4202DA00200146704740F233439A425E
:10084000A2F2334202DC524200F02CB8FFF70FBE96
:1008500030B5041E71F1000404DB4FF00044404247
:1008600064EB0101141E73F1000405DB1C464FF01C
:100870000043524263EB0403994208BF904230BDEB
:10088000064C074D06E0E06840F0010394E80700DD
:1008900098471034AC42F6D3FFF7A2FCE8590008A1
:1008A000085A0008202A04DB203A21FA02F000212D
:1008B000704721FA02F3D040C2F120029140084370
:1008C00019467047FEE7704705480168C1F34011BB
:1008D000002904D020214160012101F0C9BB7047EB
:1008E00000000240704770477047000030B5214853
:1008F0005FF00C0250E8001F21F00C01114340E8AA
:100900000014002CF6D100BF50E8001F41F0100188
:1009100040E80013002BF7D11949174D164A0C78FF
:100920000C35164B63510C78131DE4580D786FF39A
:100930000F0444F48074EC500E4B0F4D24330C78AC
:10094000083563510B78D3580C7843F002031351E8
:100950000B78D358097843F00103535010F1080085
:1009600050E8001F41F0400140E80012002AF7D192
:1009700030BD00000044004000000240C0010020E3
:10098000CE58000872B6FEE770B5044600F038F99C
:100990000546601C02D004484068044400F030F969
:1009A000401BA042FAD370BD080000202DE9F04F93
:1009B000DFF82092002301260324A9F1040B85B05F
:1009C0000F2709F1040AABF1040EFAE006FA03F569
:1009D0002A407CD091F804C00CF0030CBCF1010F4C
:1009E00002D0BCF1020F26D1D0F808C0CDF800C06B
:1009F0004FEA430C04FA0CF8CDF810C0DDF800C043
:100A00002CEA080CCDF800C0D1F80C80DDF810C03D
:100A100008FA0CF8DDF800C048EA0C08C0F80880B5
:100A2000D0F804C02CEA050C0D79C5F300159D40E3
:100A300045EA0C0545600D79ED43AD070ED0C5685C
:100A40004FEA430804FA08FC25EA0C05D1F808C06F
:100A50000CFA08FC4CEA050CC0F80CC00D7905F046
:100A60000305022D16D1DD0800EB850CCDF808C07A
:100A7000DCF820805D074FEAD56C07FA0CF528EA10
:100A800005080D6905FA0CF5DDF808C045EA08050A
:100A9000CCF8205005684FEA430CCDF808C004FAA2
:100AA0000CFC25EA0C0591F804C00CF00308DDF8F5
:100AB00008C008FA0CF848EA0508C0F800804D683C
:100AC00015F4403F7CD0444DD5F860C000E077E09D
:100AD0004CF0010CC5F860C02D6E23F0030C05F03E
:100AE000010500953D4D65440295AD684FEA837C54
:100AF0004FEA1C7807FA08FC25EA0C05B0F1904F84
:100B000006D0DFF8DCC0604505D14FF0010C20E0D5
:100B10004FF0000C1DE0DFF8CCC0604502D14FF073
:100B2000020C16E0DFF8C0C0604502D14FF0030CA4
:100B30000FE0DFF8B8C0604502D14FF0040C08E0C8
:100B4000DFF8ACC0604502D14FF0050C01E04FF07A
:100B5000060C0CFA08FC4CEA050C029DC5F808C00E
:100B6000D9F80050CC46D1F8048095435FEAC828F4
:100B700000D51543CCF80050DAF80050D446D1F82F
:100B8000048095435FEA882800D51543CCF80050CF
:100B9000DBF80050DC46D1F8048095435FEA8838E2
:100BA00000D51543CCF80050DEF80050F446D1F8DB
:100BB000048095435FEAC83800D51543CCF800504F
:100BC0005B1C0A6832FA03F57FF400AF05B0BDE89C
:100BD000F08F0000080401400010024000000140B6
:100BE0000004004800080048000C004800100048BD
:100BF000001400480AB181617047816270470000AB
:100C000001488068704700000800002090F84120EB
:100C1000202A24D190F84020012A20D0012280F8F7
:100C20004020242280F841200268136823F0010349
:100C300013600268136823F480531360026813681A
:100C40000B43136001680A6842F001020A60202128
:100C500080F84110002180F84010084670470220BB
:100C6000704790F84120202A22D190F84020012A94
:100C70001ED0012280F84020242280F84120026802
:100C8000136823F0010313600268136823F4706390
:100C900043EA0121116001680A6842F001020A601A
:100CA000202180F84110002180F84010084670474C
:100CB0000220704770B5040004D094F8410000256C
:100CC00010B106E0012070BD84F84050204600F0CD
:100CD00033FA242084F841002068016821F00101E2
:100CE00001606068216820F0706008612068816898
:100CF00021F400418160E0680128A06830D040F410
:100D0000044021688860E0680228206841682AD091
:100D100021F40061416020684168144A1143416038
:100D20002068C16821F40041C160D4E9040108438E
:100D3000A16940EA01202168C860D4E9070108439D
:100D4000216808602068016841F001010160656464
:100D5000202084F84100256384F84250002070BDB3
:100D600040F40040CDE741F40061D3E70080000289
:100D70002DE9F84F044690F84100DDF828A01F4601
:100D800090468B4620287ED194F8400001287AD0E6
:100D9000012084F84000FFF733FF0646012200904F
:100DA0001923D103204600F0ADFFE0BB222084F8D8
:100DB0004100102084F8420000256564C4F82480B6
:100DC00067856563618D3148FF274FF080784FF06C
:100DD0000079FF2903D927853A46009039E0618DD3
:100DE000218500903AE05946204600F073FF13E059
:100DF00000F0C6FFB8B92068406A616A0870606A8E
:100E0000401C6062208D401E80B22085618D491E8D
:100E10006185618D01B168B1608D3246002851460F
:100E20002046E5D100E002E000F0FEFFD0B1012055
:100E3000BDE8F88F5346002280212046009600F03E
:100E400061FF0028F3D1608DFF2804D927853A4639
:100E500000954346C7E7608D2085009594F82820CB
:100E60004B46C0E721682020C86121684A68084BCA
:100E70001A404A6084F8410084F8425084F8405097
:100E80000020D5E7FFE70220D2E700000024008021
:100E900000E800FE2DE9FF4F81B0044690F84100C4
:100EA000DDF838B01F46904620287BD194F84000EA
:100EB000012877D0012084F84000FFF7A1FE064604
:100EC000012200901923D103204600F01BFF0028C7
:100ED00053D1212084F84100102084F842000025DD
:100EE0006564C4F8248067856563608D3A49FF278F
:100EF0004FF080794FF0007AFF2802D927854B46C2
:100F000005E0608D208500045346000C10D0226857
:100F100098F800009062606A401C6062608D401E1C
:100F20006085208D401E2085401CC2B2009101E0EA
:100F3000002200912046029900F0CCFE14E000BF90
:100F400000F09DFFC8B9606A216800788862606A15
:100F5000401C6062608D401E6085208D401E80B206
:100F60002085618D01B160B1608D324600285946FF
:100F70002046E5D100F058FFE0B1012005B0BDE802
:100F8000F08F5B46002280212046009600F0BAFEDA
:100F90000028F2D1608DFF2805D927853A464B46B7
:100FA0000095C7E716E0608D2085009594F828200D
:100FB0005346BFE721682020C86121684A68074B73
:100FC0001A404A6084F8410084F8425084F8405046
:100FD0000020D3E70220D1E70020008000E800FED7
:100FE0002DE9FF4F83B00446DDE9108790F84100FA
:100FF000DDF848909A469346202871D15FEA0800B0
:1010000014D09FB194F84000012869D0012084F8E1
:101010004000FFF7F5FD0646012200901923D10399
:10102000204600F06FFE00286ED103E04FF4007000
:10103000606469E0212084F84100402084F8420087
:1010400000256564C4F8248067856563CDE9009652
:1010500053465A462046049900F00AFE10B184F81F
:10106000405051E0608DFF274FF080784FF0007ABC
:10107000FF2804D927853A464346009505E0608D50
:101080002085009594F8282053462046049900F0C6
:1010900021FE32464946204600F0F1FEA0BB606AC0
:1010A000216800788862606A401C6062608D401E22
:1010B0006085208D401E80B22085618DD9B1D0B968
:1010C0004B46002280212046009600F01BFED8B936
:1010D000608DFF2805D927853A464346009506E0EE
:1010E00026E0608D2085009594F828205346204600
:1010F000049900F0EFFD608D0028CAD132464946C0
:10110000204600F091FE18B1012007B0BDE8F08F35
:1011100020682021C16120684268064B1A40426065
:1011200084F8411084F8425084F840500020ECE7E5
:101130000220EAE700E800FEF0B587B0044614217B
:101140006846FFF76CF8254920680025244C1227D3
:101150004FF4407688421DD14FF4602001F094F99D
:10116000E06C40F00100E064E06C009600F00100EB
:101170000590CDE901750420CDE903506946B80614
:10118000FFF714FCA06D40F48000A065A06D00F492
:1011900080001FE0134988421DD14FF4801001F0F8
:1011A00073F9E06C40F00400E064E06C009600F03D
:1011B00004000590CDE901750820CDE9035069468A
:1011C0000948FFF7F3FBA06D40F08040A065A06DDB
:1011D00000F08040059007B0F0BD000000580040CE
:1011E0000010024000780040000800480248816872
:1011F00042681144816070470800002010B5002447
:10120000032000F095F80F2000F008F808B1012441
:1012100001E000F047F8204610BD000030B505465B
:101220001B4887B0016E41F400610166006E06A99B
:1012300000F40060009001A800F094F800F0B2F80B
:101240001449154AB0FBF1F11448491E026041608F
:1012500040F2E7320021C0E90321816000F009F982
:10126000040012D10D4800F053F904000DD11920EB
:1012700000F030F8102D07D200222946192000F086
:1012800037F80748056000E0012407B0204630BD6C
:101290000010024040420F00002C0140C402002018
:1012A000080000200A4882B0016E41F00101016689
:1012B000016E01F001010091816D41F08051816565
:1012C000806D00F08050009002B000F043B8000044
:1012D00000100240002809DB00F01F0201219140AC
:1012E0004009800000F1E020C0F8001170470000C4
:1012F000F0B40E4B1B680C46C3F30223C3F1070581
:10130000042D00D90425191D072901D2002300E06E
:10131000DB1E012606FA05F1491E214099409E4038
:10132000761E16403143F0BC02F084BA0CED00E0AA
:10133000064900F0070208684FF6FF03184040EA2C
:101340000220034A10430860704700000CED00E0E3
:101350000000FA050248816841F4804181607047CD
:10136000007000400F2202600C4A936803F00303F0
:101370004360936803F0F0038360936803F4E063D1
:10138000C36092684FF4E06303EAD202026104484A
:10139000006800F00F000860704700000010024075
:1013A000002002400548064900688968054AC1F3E3
:1013B000C221515C01F01F01C84070471400002099
:1013C000001002401C590008704770477047704772
:1013D00070477047F0B590F83C20012A3AD00125BB
:1013E00080F83C50022280F83D2003685A689C68CF
:1013F000194E1A4FB34201D0BB4204D122F4700CF3
:101400004A6842EA0C02DFF858C002EA0C02D1F83E
:1014100000C04CEA020CC3F804C00268B2420DD00E
:10142000B2F1804F0AD00F4B9A4207D00E4B9A422E
:1014300004D0BA4202D00D4B9A4204D1896824F0FC
:1014400080031943916080F83D50002180F83C10E2
:101450000846F0BD0220F0BD002C014000340140E0
:101460008FFFFFFD000400400008004000400140E5
:10147000704710B5040003D094F83D0010B107E0A8
:10148000012010BD002084F83C00204600F022F826
:10149000022084F83D00211D206801F0F7FE0120A4
:1014A00084F8480084F83E0084F83F0084F8400047
:1014B00084F8410084F8420084F8430084F8440032
:1014C00084F8450084F8460084F8470084F83D001D
:1014D000002010BD08B501680B48B1F1804F0BD05A
:1014E0000A4A914207D1816D41F002018165806D08
:1014F00000F00200009008BD816D41F0010181659E
:10150000806D00F00100F5E700100240000400408B
:1015100090F83D10012901D001207047022180F888
:101520003D100168CA6842F00102CA6000681049B3
:1015300088420ED0B0F1804F0BD00E49884208D0BF
:101540000D49884205D00D49884202D00C49884295
:1015500007D181680B4A1140062906D0B1F5803FBA
:1015600003D0016841F001010160002070470000D4
:10157000002C0140000400400008004000340140FD
:10158000004001400700010070B5044690F83C009F
:101590000025012814D0012684F83C60022084F83C
:1015A0003D0022689068364B184020F47F409060E0
:1015B000086870282ED010DC10F00F0F03D021E047
:1015C0004FF0020070BD4FEA2012072A1AD2DFE85E
:1015D00002F0525252524A3840002A4BC21A9842E4
:1015E00049D009DCB0F5805F0DD0B0F5005F1CD0AC
:1015F000B0F1101F06D13EE0102A3CD0202A3AD08C
:10160000502A38D0012584F83D60002084F83C0041
:10161000284670BDCB68D1E90121206801F0A1FE08
:101620002068816841F0770109E0CB68D1E90121A8
:10163000206801F096FE2068816841F48041816055
:10164000E1E7CA684968206802F036F8502120684E
:1016500006E0CA684968206802F03FF86021206807
:1016600001F08AFECFE7CA684968206802F024F8D2
:1016700040212068F4E7226801461046F0E70000A8
:1016800088FFCEFF2000100070472DE9F04104468E
:101690000068C66805694FF00007A90713D5B107B0
:1016A00011D5F91E0161012020772068806980072B
:1016B000204602D0FFF7E8FF04E000F0F1F82046F2
:1016C00000F0B3F92777680716D5700714D521689D
:1016D0006FF004000861022020772068806910F410
:1016E000407F204602D0FFF7CFFF04E000F0D8F89B
:1016F000204600F09AF92777280715D5300713D52B
:1017000021686FF008000861042020772068C06914
:101710008007204602D0FFF7B7FF04E000F0C0F8D2
:10172000204600F082F92777E80616D5F00614D592
:1017300021686FF010000861082020772068C069D8
:1017400010F4407F204602D0FFF79EFF04E000F037
:10175000A7F8204600F069F92777E80708D0F007D6
:1017600006D021686FF001000861204600F0DCF926
:10177000280601D4A80408D5300606D521686FF4E0
:10178000025008612046FFF720FEE80508D5300624
:1017900006D521686FF4807008612046FFF714FEBB
:1017A000680608D5700606D521686FF0400008610C
:1017B000204600F0C3F9A80608D5B00606D5216872
:1017C0006FF0200008612046FFF700FEE80208D510
:1017D000F00206D521686FF4801008612046FFF7FB
:1017E000F7FDA80208D5B00206D521686FF40010F5
:1017F00008612046FFF7EBFD680208D5700206D5A8
:1018000021686FF4800008612046FFF7E2FD28029E
:101810000AD5300208D521686FF40000086120461F
:10182000BDE8F041FFF724BEBDE8F08130B587B0D8
:10183000044614216846FEF7F2FC2468002316498A
:1018400002224FF09040B4F1804F15D0134DAC42BE
:1018500010D1CC6C44F00104CC64C96C01F00101DE
:101860000591C0218DE80E00CDE90332694600BF25
:10187000FFF79CF807B030BDCC6C44F00104CC6499
:10188000C96C01F00101059120218DE80E000121B4
:10189000CDE903316946EBE7001002400004004047
:1018A000704770B5044690F83C0000260D460128AC
:1018B0000BD0012084F83C000C2A4AD007DC82B10E
:1018C000042A20D0082A06D131E0022070BD102A57
:1018D00053D0142A63D00126002084F83C003046FF
:1018E00070BD206801F052FD2068816941F0080157
:1018F00081612068816921F004018161206881692A
:101900002A69114311E0206801F08EFD2068816989
:1019100041F4006181612068816921F48061816105
:10192000206881692A6941EA02218161D4E720683F
:1019300001F0C2FD2068C16941F00801C161206861
:10194000C16921F00401C1612068C1692A6911439C
:1019500011E0206801F0F8FD2068C16941F40061E0
:10196000C1612068C16921F48061C1612068C169D9
:101970002A6941EA0221C161AEE7206801F02CFE2C
:101980002068016D41F0080101652068016D21F0BA
:10199000040101652068016D2A69114311E0206886
:1019A00001F052FE2068016D41F40061016520687C
:1019B000016D21F4806101652068016D2A6941EAA9
:1019C0000221016588E710B5040003D094F83D00BA
:1019D00010B107E0012010BD002084F83C00204633
:1019E00000F022F8022084F83D00211D206801F05B
:1019F0004DFC012084F8480084F83E0084F83F0044
:101A000084F8400084F8410084F8420084F84300E0
:101A100084F8440084F8450084F8460084F84700C0
:101A200084F83D00002010BD7047704730B5044673
:101A3000022269B1042912D0082917D00C291CD020
:101A4000102921D094F84300012824D0012030BD72
:101A500094F83E000128F9D184F83E201DE094F866
:101A60003F000128F2D184F83F2016E094F84000AE
:101A70000128EBD184F840200FE094F841000128C0
:101A8000E4D184F8412008E094F842000128DDD137
:101A900084F8422001E084F843200122206801F00C
:101AA00053FC194B20681949194A984209D08842B9
:101AB00007D0904205D0174DA84202D0164DA8423B
:101AC00003D1456C45F400454564206898420CD02C
:101AD000B0F1804F09D0114B984206D0104B98427C
:101AE00003D0884201D0904207D181680D4A11404D
:101AF000062906D0B1F5803F03D0016841F001010D
:101B00000160002030BD0000002C01400034014085
:101B100000400140004401400048014000040040F2
:101B2000000800400700010000680349884201D115
:101B3000FFF75CBB70470000002C01407047FEE7D8
:101B400001688A69D243920701D400228A62006840
:101B50008169C943C90703D0816941F001018161ED
:101B6000704700002DE9F0470446006889460026CA
:101B7000816935461746C9064FF0200841D5102126
:101B8000C1612FE0B9F1FF3F2CD0FFF739F8C11B3D
:101B9000494502D8B9F1000F24D12068416894F872
:101BA000422001F480418369DB431B0415D4B1F565
:101BB000804F12D0202A10D0416841F4804141600A
:101BC000FFF71EF8074608E0FFF71AF8C01B1928B0
:101BD00003D945F02005012604E020688069C04350
:101BE0008006F1D420688069C043800602D5002EAB
:101BF000C8D003E016B92168C1F81C8045F004057F
:101C0000012621688869C20505D54FF4807245F028
:101C10000105CA610126410509D522684FF480619A
:101C200045F00805D1610126800502D40AE080054F
:101C300007D521684FF4007045F00205C861012600
:101C400000E086B12046FFF77BFF54F8240B416883
:101C5000064A11404160206A2843206284F81D80B2
:101C60000020A07720773046BDE8F08700E800FE2E
:101C70002DE9F8430446164615489846DDE90897CD
:101C8000DAB2C3020090204600F024F83A464946F2
:101C9000204600F0F4F8B8B9F5B2B8F1010F08D059
:101CA0002168300A88623A464946204600F0E7F843
:101CB00050B9206885624B4600228021204600975B
:101CC00000F020F8002800D00120BDE8F8830000D3
:101CD0000020008010B5C1F3090141EA0241026809
:101CE000029C19432143506821F000414FF4806366
:101CF00003EA5453024C234398430843506010BDF9
:101D0000FF63FF032DE9F0411D4617460E460446CA
:101D1000DDF8188027E0424629462046FFF722FFDB
:101D200010B10120BDE8F081681C1CD0FEF768FFEF
:101D3000A0EB0800A84200D8ADB92068806936EA57
:101D400000000ED00020B8420DD154F8440F40F0EE
:101D5000200044F80409202060700020A07020704A
:101D6000DFE70120EFE72068806936EA000004D051
:101D70000020B842CFD00020D4E70120F9E70000CE
:101D80002DE9F04700259146884604462E46202737
:101D90003DE04A4641462046FFF7E4FE00B10125FA
:101DA00020688169C943890619D4C5B981698169E7
:101DB000C943C90612D41021C1610420606420689F
:101DC000C76120684168174A1140416084F841703A
:101DD00084F8426084F84060012500E06664FEF704
:101DE0000FFFA0EB0901414502D8B8F1000F0ED159
:101DF0006DB920688069C043400708D5606C40F029
:101E00002000606484F8417084F8406001252068F7
:101E10008069C043400701D5002DBAD02846BDE8EF
:101E2000F087000000E800FE70B516460D46044637
:101E30001EE0324629462046FFF794FE08B10120F5
:101E400070BDFEF7DDFE801BA84200D885B9206872
:101E50008069C04380060BD554F8440F40F0200041
:101E600044F80409202060700020A0702070E6E78C
:101E700020688069C0438006DBD4002070BD70B547
:101E800016460D46044620E0324629462046FFF716
:101E900069FE08B1012070BD681C16D0FEF7B0FEC7
:101EA000801BA84200D885B920688069C04380079C
:101EB0000BD554F8440F40F0200044F804092020CA
:101EC00060700020A0702070E4E720688069C04343
:101ED0008007D9D4002070BD30B54FF0A0444B68C6
:101EE000A46800220E4D04F00104AD6805F0010560
:101EF0002C4302D00122104630BD0A4D53B10C686C
:101F00001C43D1E902310B4381681C4329400C4337
:101F10008460F0E7836809682B400B438360EAE73D
:101F200000010050E030C0FF30B58368002213F09C
:101F3000010F02D00122104630BDD1E90034234305
:101F40008968C4684CF21805AC4321430B43C36055
:101F5000F1E7000070B54C688368002213F0010FB0
:101F600002D00122104670BD002C0E4B0C6807D029
:101F70008D682C43D1E9035635432C434D6904E069
:101F8000CD682C43D1E9045635432C43C5681D4028
:101F90002C43C4604968036B23F00F030B430363B6
:101FA000E0E700001CC0F0FF0C2303EA911310B51A
:101FB0001844036B01F01F011F248C40C2F384629C
:101FC000A3438A401343036310BD042303EAD153A0
:101FD00010B518444369C1F3045107248C40A3434E
:101FE0008A401343436110BD10B550F8B03FC1F3B0
:101FF0001204A34302F01804024AE2400A401343C9
:10200000036010BDFFFF0700D0F8C0206FF30D0282
:102010000A43C0F8C020026922F4803201B10121D4
:1020200042EA014101617047044908B58A6C0243E4
:102030008A64896C0140009108BD000000100240D4
:10204000044908B5CA6C0243CA64C96C01400091D6
:1020500008BD000000100240044908B5CA6C0243E4
:10206000CA64C96C0140009108BD00000010024024
:10207000034A515C425822F001024250704700006E
:10208000D4580008034B595C435823F4405313437E
:1020900043507047C8580008034B595C435823F419
:1020A0004053134343507047CE580008044B10B5BB
:1020B000595C435844F21004A3431343435010BDEA
:1020C000C8580008044B10B5595C435844F210043A
:1020D000A3431343435010BDCE580008034B595C33
:1020E000435823F08003134343507047C8580008F7
:1020F000034B595C435823F080031343435070470C
:10210000CE580008034B595C435823F440631343F3
:1021100043507047C8580008034B595C435823F498
:102120004063134343507047CE580008034B595C3B
:10213000435823F02003134343507047C858000806
:10214000034B595C435823F020031343435070471B
:10215000CE580008034B595C435823F04003134307
:1021600043507047C8580008034B595C435823F04C
:102170004003134343507047CE580008074B83EA8F
:10218000902001EBC000810098020844D0F80018AC
:1021900021F0FF011143C0F80018704780001000C3
:1021A000074B83EA902001EBC000810098020844AD
:1021B000D0F8001821F0FF011143C0F80018704753
:1021C00080001000034B595C435823F440731343C1
:1021D00043507047C8580008034B595C435823F4D8
:1021E0004073134343507047CE580008F0B50A6857
:1021F0000F2692FAA2F2B2FA82F303248AE00125B2
:102200009D402A407ED04D68012D01D0022D20D165
:102210008D68876892FAA2FCBCFA8CFC4FEA4C0EDF
:1022200004FA0EFC27EA0C0792FAA2FCBCFA8CFC1A
:102230004FEA4C0C05FA0CF52F438760CF680D6808
:10224000D0F804C02CEA050C7D434CEA050CC0F81C
:1022500004C00F69D0F80CC092FAA2F5B5FA85F562
:102260004FEA450E04FA0EF52CEA050C92FAA2F597
:10227000B5FA85F56D00AF404CEA070CC0F80CC00C
:102280004D68022D2FD1FF2A15D8D1F814C0056A48
:1022900092FAA2F7B7FA87F7BF0006FA07F7BD432D
:1022A00092FAA2F7B7FA87F7BF000CFA07FC45EAE3
:1022B0000C05056217E0D1F814E0476A150A95FA93
:1022C000A5FCBCFA8CFC4FEA8C0C06FA0CFC95FAC7
:1022D000A5F5B5FA85F5AD0027EA0C070EFA05FE5F
:1022E00047EA0E0747624D68076892FAA2FCBCFAFB
:1022F0008CFC4FEA4C0C04FA0CFE27EA0E0792FA0B
:10230000A2F200E005E0B2FA82F2520095402F43BB
:1023100007605B1C0A6832FA03F57FF470AF002097
:10232000F0BD000010B50024C02823D11248D0F819
:10233000880000F0C00040F440004038B0F5400094
:102340000AD040280CD080280FD000F0F5FE00F015
:10235000C3FE00F0D1FE01E000F0EEFE044609E00D
:1023600000F068F830B1054C04E000F06BF808B1FB
:102370004FF40044204610BD001002400024F40039
:1023800070B5002429492A4D4FF40046032804D093
:102390000C281AD030282FD040E0D1F888006FF4F4
:1023A000403100F0030040F4403040180AD00128CA
:1023B00036D002282ED000F0BFFE00F08DFE00F0D7
:1023C000ABFE17E000F0B8FE14E0D1F8880000F092
:1023D0000C0040F44020001FB0F54020F2D004284B
:1023E0001ED0082816D000BF00F0A6FE00F074FE34
:1023F00000F082FE044611E0D1F8880000F03000C1
:1024000040F440101038B0F54010DBD0102807D051
:102410002028E9D100F016F800B13446204670BDFE
:1024200000F008F80028F9D02C46F7E70010024029
:102430000024F40002480068C0F3802070470000C8
:10244000001002400248D0F89000C0F340007047EE
:1024500000100240064A10B552F8881FC0F304432A
:1024600003249C40C0B2A14398400143116010BDB9
:102470000010024003498A6822F0F00202438A6099
:102480007047000000100240074910B501EB1061D1
:102490000A68C0F3044303249C40C0B2A24398409E
:1024A00002430A6010BD0000881002400149086024
:1024B00070470000140000202DE9F0410446006838
:1024C0000D46012610F0010F4CD12969A868EA6970
:1024D000084369691143084321682B4A11400843A6
:1024E0002060E868616821F4405101436160A86997
:1024F000A16821F440710143A1602448844201D1C4
:10250000032008E02248844201D10C2003E0214846
:10251000844203D13020FFF733FF05E01E48844298
:1025200019D1C020FFF7FEFEA8B1696899B12A68E9
:102530000026EB690B2A0ED8184FD2B2B3F5004F24
:1025400057F82220B0FBF2F00FD000EB5100B0FBA7
:10255000F1F080B2E0602888E16A80B221F00F01DA
:102560000143E1623046BDE8F081400000EB5100DC
:10257000B0FBF1F081B24FF6F07201EA0200C1F354
:1025800042010843E6E70000F369FFEF003801402D
:102590000044004000480040004C0040DC58000867
:1025A00010B50E4C2DED028B9FED0B8ADFED0C8AE2
:1025B00084EC028A01F06AFFA0600C3484EC028A89
:1025C00001F064FFA0600C3484EC028A01F05EFF2D
:1025D000A060BDEC028B10BD0AD7A33C1003002005
:1025E0000000000010B504462DED028BB0EE408ACD
:1025F00001F04CFFA168DFED180A411A00EE101A35
:10260000A060B8EE400A20EE200AB5EEC00AF1EE56
:1026100010FA02D29FED110A0BE010EE100A1049D9
:10262000884206DD84ED018AB0EE480ABDEC028BDB
:1026300010BD94ED001A31EE000AC1EE000A94EDCF
:10264000010AB7EE001A20EE200A71EE600A00EED1
:10265000880A84ED010AE9E7BD3786356F12833AAF
:102660009A99993EF0B593B00024109411941821D2
:1026700068461294FDF7D3FD0C940D940E94182126
:1026800006A80F94FDF7CBFD4648FFF7E3FE4FF495
:1026900000552846FFF7E0FC0120FFF7DDFC01268E
:1026A0000320CDE9066006A90A944FF09040FFF799
:1026B0009DFD3D4F052200213846FFF75FFD0022BA
:1026C00011463846FFF7F2FC2A4600213846FFF74C
:1026D000D9FC202200213846FFF728FD00221146B0
:1026E0003846FFF737FD002211463846FFF7F6FC63
:1026F0006A1100213846FFF765FDEA1000213846CF
:10270000FFF700FD4FF0A0451094119410A9284642
:102710001294FFF709FC009401940294CDE903465A
:10272000694628460594FFF715FC00212846FFF767
:102730006BFC286940F20341884328614FF4403024
:10274000CDE90C040CA91948FFF7C6FBA868184985
:102750000840A860A8681749084040F08050A86069
:10276000154816490068B0FBF1F000EB80008000CE
:102770000A21B0FBF1F000E0401E0028FCD1104C13
:10278000062122462846FFF70FFC00222146284654
:10279000FFF71BFC7F2221462846FFF725FC13B0DC
:1027A000F0BD000002001C000004024000030050C5
:1027B000C0FFFF5FC0FFFF7F14000020400D03003B
:1027C0000200300470B590B000240C940D941821D0
:1027D00068460E94FDF723FD182106A8FDF71FFD9E
:1027E0004248FFF737FE4FF400552846FFF734FC08
:1027F0000120FFF731FC022006900320079006A974
:102800000A944FF09040FFF7F1FC394E2422012149
:102810003046FFF7B3FC002201213046FFF746FCAB
:102820002A4601213046FFF72DFC202201213046A7
:10283000FFF77CFC002201213046FFF78BFC0022D1
:1028400001213046FFF74AFC6A1101213046FFF7AB
:10285000B9FCEA1001213046FFF754FC254D0C94D9
:102860000D940CA928460E94FFF75EFB009401948A
:1028700001200294CDE90340694628460594FFF7FC
:1028800069FB00212846FFF7BFFB286940F203419E
:1028900088432861A86818490840A860A8681749B3
:1028A000084040F08050A860154816490068B0FB09
:1028B000F1F000EB800080000A21B0FBF1F000E0B5
:1028C000401E0028FCD1104C062122462846FFF766
:1028D0006BFB002221462846FFF777FB7F2221462B
:1028E0002846FFF781FB10B070BD000002001C00FD
:1028F0000004024000010050C0FFFF5FC0FFFF7FE7
:1029000014000020400D03000400600810B50420EE
:10291000FFF78AFB0220FFF787FB0120FFF784FB0C
:1029200000F070FF0022114600F0D1FA01460B20A2
:1029300000F070FF0B2000F058FF00F063FF002252
:10294000114600F0C4FA01460C2000F063FF0C2091
:1029500000F04BFF00F056FF0022114600F0B7FADE
:102960000146382000F056FF382000F03EFF00F00E
:1029700049FF0022114600F0AAFA0146392000F072
:1029800049FFBDE81040392000F02FBF00B587B0E7
:1029900018216846FDF743FC2020FFF751FB01207A
:1029A000FFF74EFB0420FFF74BFB4FF09040102148
:1029B0008162009101210191002102910391049112
:1029C0006946FFF713FC07B000BD0000134810B5BF
:1029D000114901601249416000210122C0E902123F
:1029E000016141618161C1610162FEF763F908B172
:1029F000FDF7C8FF00210948FEF708F908B1FDF707
:102A0000C1FF00210548FEF72CF9002803D0BDE8DE
:102A10001040FDF7B7BF10BD0058004080000020F7
:102A2000EC9D9030134810B5114901601249416086
:102A300000210122C0E90212016141618161C1618D
:102A40000162FEF737F908B1FDF79CFF0021094844
:102A5000FEF7DCF808B1FDF795FF00210548FEF709
:102A600000F9002803D0BDE81040FDF78BBF10BD72
:102A700000780040D4000020EC9D903010B58EB05E
:102A800000240794089409940A940B940C941C2134
:102A900068460D94FDF7C3FB1E484FF0804101606E
:102AA0000121C0E901144FF47A71C0E903148021B7
:102AB0008161FEF7DEFC08B1FDF764FF4FF4805042
:102AC000079007A91348FEF75FFD08B1FDF75AFF0D
:102AD0001048FEF778FF08B1FDF754FF0B940BA9DF
:102AE0000C480D94FEF776FC08B1FDF74BFF602013
:102AF000CDE9000402940022694606480494FEF7DA
:102B0000D0FE08B1FDF73EFF0248FEF78FFE0EB083
:102B100010BD00002801002010B58EB000240794DD
:102B2000089409940A940B940C941C2168460D9403
:102B3000FDF775FB2248214901600121C0E901141C
:102B40004FF47A71C0E9031480218161FEF791FC92
:102B500008B1FDF717FF4FF48050079007A91848F8
:102B6000FEF712FD08B1FDF70DFF1548FEF72BFF2C
:102B700008B1FDF707FF0B940BA911480D94FEF760
:102B800029FC08B1FDF7FEFE6020CDE900040294A7
:102B9000002269460A480494FEF783FE08B1FDF757
:102BA000F1FE042269460648FEF77BFE08B1FDF7F8
:102BB000E9FE0348FEF73AFE0EB010BD00040040E7
:102BC00074010020F0B58FB0202106A8FDF727FB87
:102BD00018216846FDF723FB704850F8881F002431
:102BE00021F00C0140F83C19C16841F40031C1608A
:102BF000C16801F400310E91016841F001010160EA
:102C00000068022500F001000E9004200090CDE93C
:102C100001540726CDE904464FF0904769463846EF
:102C20000394FFF7E3FA08200090CDE90154CDE9C1
:102C30000446694638460394FFF7D8FA584D1A22DD
:102C400000212846FFF7ACFA002211462846FFF77C
:102C500039FA002211462846FFF71EFA00221146D3
:102C60002846FFF76DFA002211462846FFF77CFA46
:102C7000802200212846FFF73BFA00221146284611
:102C8000FFF7AAFA002211462846FFF745FA1B2251
:102C900001212846FFF784FA102201212846FFF778
:102CA00011FAAA1401212846FFF7F6F900220121A2
:102CB0002846FFF745FA002201212846FFF754FA7B
:102CC000802201212846FFF713FA0022012128461D
:102CD000FFF782FA002201212846FFF71DFA31484A
:102CE0000068C0F30220011D072901D2002000E086
:102CF000C01E04FA00F108012B4981F800042A499A
:102D000040202239C1F80001284806A980F8024174
:102D100080F803414FF4E130CDE906400C20CDE9C5
:102D20000A40089409940C940D94214C2046FFF716
:102D3000C3FB002204F1080050E8001F62F35F713A
:102D400040E80013002BF7D1002104F1080000BF78
:102D500050E8002F22F0606242EA416240E800231E
:102D6000002BF5D1206820F000502060606820F42E
:102D700090406060A06820F02A00A060206840F0C9
:102D800001002060E069C0F340500028FAD0E069FB
:102D9000C0F380500028F5D00FB0F0BD0010024005
:102DA000000002400CED00E026E000E0C001002041
:102DB0000044004010B5094C4FF48050206002F0F0
:102DC0000FFA9FED070AA06084ED040A01F05EFB94
:102DD000606002F0A1F984ED030A10BD64000020D8
:102DE00000000000FEE7000010B511A000F0C2FCDA
:102DF0001248D0ED030A90ED020AF4EEC00AF1EE9B
:102E000010FA01DD80ED030A0D4981ED040A0D4938
:102E100081ED040A0C490A780C490AB190ED070AC1
:102E200081ED040A90ED060A094880ED040A10BD00
:102E30004D4F543A20496E69740D0A001800002065
:102E40003403002058030020600000207C03002091
:102E5000A0030020B5EEC00A10B5F1EE10FA04D0C0
:102E6000134981ED000A1349086001F0DFFE02F00A
:102E700053F9114880ED000A3220FDF785FD02F07C
:102E8000C5FC0E4880ED000A0520FDF77DFD02F02F
:102E9000A9FC0B4880ED000A0A480078022802D1FC
:102EA000094880ED000ABDE81040C820FDF76CBD60
:102EB0004000002018000020700000204800002082
:102EC0003C0000206100002000000020FEE730B53B
:102ED00000F00703C3F10704042C00D90424181DD3
:102EE000072801D2002300E0DB1E012505FA04F0CB
:102EF000401E084098409D406D1E1540284330BD3F
:102F000010B5294C2DED028BF6EE008A9FED278A35
:102F1000C4ED008A84ED018A84ED028A84ED038A7F
:102F200084ED058A84ED068A84ED078A01F0AEFA05
:102F300020622434B0EE080A84ED000A84ED018A90
:102F400084ED028A84ED038A84ED058A84ED068A85
:102F500084ED078A01F09AFA20626C3CC4ED008A85
:102F600084ED018A84ED028A84ED038A84ED058A6A
:102F700084ED068A84ED078A01F088FA2062243401
:102F8000C4ED008A84ED018A84ED028A84ED038A0F
:102F900084ED058A84ED068A84ED078A01F076FACD
:102FA0002062BDEC028B10BD7C03002000000000FD
:102FB00010B504462DED028BB0EE408A01F066FAA2
:102FC000216A411A00EE101AB8EE400ADFED3F0AFE
:102FD000206260EE200AF5EEC00AF1EE10FA04D984
:102FE00010EE900AB0F17C5F01DDDFED390A94ED5F
:102FF000011A94ED000AF6EE001A21EE201A94ED63
:10300000053A60EE082A94ED070A21EE211A73EEC4
:10301000081A01EE210A94ED041AF1EE411AF4EEB9
:10302000C01AF1EE10FA02DDB0EE610A06E0B4EE6D
:10303000C01AF1EE10FA01D2B0EE410A38EE433A6E
:10304000B0EE402A94ED020A72EE822A20EE033A94
:1030500083EE200A32EE800AF4EEC01AF1EE10FA86
:1030600002DDB0EE610A06E0B4EEC01AF1EE10FA2D
:1030700001D2B0EE410AD4ED031AF5EEC01AF1EE1A
:1030800010FA1ADD94ED061A30EE413AC3EE202A0A
:10309000F4EEE21AF1EE10FA04D2B0EE410A01EEBB
:1030A000A00A0AE0B1EE613AB4EEE23AF1EE10FAAB
:1030B00003DDB0EE410A01EEE00A84ED072A84ED5B
:1030C000060A84ED058ABDEC028B10BDBD3786353E
:1030D0006F12833A7047000005498968054A01F07C
:1030E000F0010909515C01F01F01C8407047000060
:1030F000001002400C59000805498968054A01F48E
:10310000E06102EB1121097801F01F01C84070470E
:10311000001002401C59000805498968054A01F45D
:10312000605102EBD121097801F01F01C8407047BE
:10313000001002401C5900081549886800F00C0373
:103140001448042B0DD0144A082B09D00C2B08D19D
:10315000CB6803F00303022B05D0032B03D101E05E
:10316000104670471046CA68C2F306224243C86838
:10317000C96800F0F003012000EB1313B2FBF3F277
:1031800001F0C06100EB51604000B2FBF0F070470D
:10319000001002400024F40000366E0170477047B2
:1031A00038B52E48016821F00F0141F0040101609B
:1031B000016801F00F010429FAD1294850F8801F55
:1031C00021F480710160274C206840F480702060F9
:1031D0002068C0F380200028FAD0606820F0FE400C
:1031E00040F080406060E16845F232001E4A1140C4
:1031F0000843E060E06840F08070E060206840F0E4
:10320000807020602068C0F340600028FAD0A06879
:1032100040F00300A0608020FFF72CF9A06800F0C8
:103220000C000C28FAD155200090401E0090FCD1D3
:10323000FFF720F9A06820F4E060A060A06820F407
:103240006050A0600948FFF731F90F20FDF7E6FF55
:10325000002801D072B6FEE738BD00000020024011
:1032600000700040001002400C80FFF900688909DE
:103270000248016841F470010160704788ED00E088
:103280000148FEF702BA0000C40200202DE9F04315
:103290000268264B264D274E274C4FF08049984216
:1032A00007D0484505D0A84203D0B04201D0A04283
:1032B00003D122F070074A683A43204FDFF880C0FC
:1032C000DFF8808098420DD048450BD0A84209D045
:1032D000B04207D0A04205D0B84203D0604501D02B
:1032E000404503D122F44075CA682A434D6922F053
:1032F00080022A4302608A68C2620A688262984237
:1033000007D0A04205D0B84203D0604501D0404567
:1033100001D109690163012141610169C90703D034
:10332000016921F001010161BDE8F083002C014039
:10333000000400400008004000340140004001400B
:10334000004401400048014010B501F01F03012175
:10335000046A99408C430462016A9A4011430162F5
:1033600010BD10B5846842EA032224F47F440A4366
:103370002243826010BD00008268034B1A400A435A
:1033800042F00701816070478FFFCFFF2DE9F043C6
:10339000056A026A22F001020262436882691C4CDB
:1033A00025F0020522400C6822F0030214438A68CB
:1033B000194E2A43174D194FDFF864C0DFF86490A7
:1033C000A84207D0B04205D0B84203D0604501D032
:1033D000484506D122F00808CA6842EA080222F0ED
:1033E0000402A84207D0B04205D0B84203D06045DD
:1033F00001D0484505D14D6923F440731D438B69C5
:103400002B4343608461496841630262BDE8F083F5
:103410008FFFFEFF002C01400034014000400140BE
:103420000044014000480140F0B5056A026A22F0FC
:103430001002026242688369194C1B4E23400C68DB
:1034400023F4407343EA042425F020038D6843EA03
:103450000513144DA84201D0B04206D1CF6823F025
:10346000800343EA071323F04003A8420AD0B04286
:1034700008D00E4DA84205D00D4DA84202D00D4DEA
:10348000A84207D14D6922F4406242EA85028D6963
:1034900042EA850242608461496881630362F0BD4B
:1034A000FF8FFFFE002C014000340140004001402E
:1034B0000044014000480140F0B5056A026A22F468
:1034C000807202624368C269194C1B4E22400C682C
:1034D00022F00302144325F400728D6842EA0522AB
:1034E000144DA84201D0B04206D1CF6822F4006248
:1034F00042EA072222F48062A8420AD0B04208D0F1
:103500000E4DA84205D00E4DA84202D00D4DA84246
:1035100007D14D6923F4405343EA05138D6943EA0B
:1035200005134360C4614968C1630262F0BD0000D5
:103530008FFFFEFF002C014000340140004001409D
:103540000044014000480140F0B5056A026A22F4D7
:10355000805202624268C369194C1B4E23400C68BA
:1035600023F4407343EA042425F400538D6843EAAE
:103570000533144DA84201D0B04206D1CF6823F4E0
:10358000004343EA073323F48043A8420AD0B04201
:1035900008D00E4DA84205D00D4DA84202D00D4DC9
:1035A000A84207D14D6922F4404242EA85128D6952
:1035B00042EA85124260C461496801640362F0BD59
:1035C000FF8FFFFE002C014000340140004001400D
:1035D000004401400048014030B5056A026A22F407
:1035E000803202624268036D114C23400C681C4318
:1035F00025F400330D8943EA05430E4DA8420BD054
:103600000D4DA84208D00D4DA84205D00C4DA84242
:1036100002D00C4DA84204D14D6922F4803242EA16
:1036200005224260046549688164036230BD000080
:103630008FFFFEFF002C014000340140004001409C
:10364000004401400048014030B5046A026A22F497
:10365000801202624268036D114D24F400142B4065
:103660000D6843EA05230D8944EA05540D4DA8422F
:103670000BD00D4DA84208D00C4DA84205D00C4DE2
:10368000A84202D00B4DA84204D14D6922F48022F9
:1036900042EA8522426003654968C164046230BD24
:1036A000FF8FFFFE002C014000340140004001402C
:1036B000004401400048014010B5036A046A24F048
:1036C00001040462846924F0F00444EA021423F043
:1036D0000A020A438461026210BD10B5036A046ADB
:1036E00024F010040462846923F0A00324F47044DD
:1036F00044EA023243EA01118261016210BD000016
:10370000174810B5C169C1F30011002926D001681E
:10371000C1F30011002921D010210162114C0021B8
:103720002046FEF7A5FC1049201D0A78125892B2D7
:10373000C2F580730D4AA2F80031012382F80231EC
:103740000A7812580B786FF30F0242F480721A5005
:1037500008782058097840F00100605010BD000042
:103760000044004000000240D4580008C00100207E
:10377000FEE700000FB4054B10B503A9044A0298F8
:1037800000F0BCFE10BC5DF814FB00000151000805
:103790007800002003B401984100009850EAC1204D
:1037A00018BF04204A0D18BF40F0010040F2FF721C
:1037B000B2EB515F08BF40F00200012808BF0520AE
:1037C00002B070474100080218BF04200A0E18BF5B
:1037D00040F001004FF07F4232EA010108BF40F0A3
:1037E0000200012808BF05207047002809DB00F00F
:1037F0001F02012191404009800000F1E020C0F843
:103800000011704702480068C0F3022070470000B2
:103810000CED00E00907090E002804DB00F1E020B0
:1038200080F80014704700F00F0000F1E02080F8ED
:10383000141D70470907090E002804DB00F1E02081
:1038400080F80014704700F00F0000F1E02080F8CD
:10385000141D70470000000070B59B482DED020B51
:103860002DED068B079D25F00044A04218DC9748FB
:10387000844202DC0AD1069840B19DED060BBDECF6
:10388000068B02B0BDE8704000F02DBC002DCCBF0F
:103890009FED8F0B9FED900BBDEC068B02B070BDC2
:1038A0008F48A04215DD8F48A042D8BF4FF0FF34AB
:1038B00058DD9DED060B51EC100BFFF76BFF042854
:1038C00008BF00F035FC9DED060BBDEC068B02B089
:1038D00070BD9DED060B51EC100B01F005FCCDE920
:1038E000060181489FED828BA0423CDD8248A042C8
:1038F0001FDD00249FED82AB9DED060B53EC1A2BD0
:1039000051EC100BFCF796FC9DED060B41EC190BEE
:1039100053EC1A2B51EC100BFCF75EFE53EC182BFA
:10392000FCF729FD53EC192BFCF7C8FECDE9060185
:1039300049E09DED060B012453EC182B51EC100BC4
:10394000FCF778FC9DED060B41EC190B53EC182BA2
:1039500051EC100BFCF70FFD53EC192BFCF7AEFEEE
:10396000CDE906012FE06848A0421FDD02249FED4B
:10397000689B9DED060B53EC192B51EC100BFCF7DB
:103980002BFE53EC182BFCF755FC9DED060B41EC80
:10399000180B53EC192B51EC100BFCF7ECFC53EC0F
:1039A000182BFCF78BFECDE906010CE09DED060B14
:1039B000032453EC102B9FED580B51EC100BFCF72C
:1039C0007DFECDE906019DED060B53EC102B51EC6D
:1039D000100BFCF701FE41EC180B53EC182BFCF715
:1039E000FBFD41EC190B4E480621B0EE490AF0EE02
:1039F000690A784400F0FBFA53EC182B51EC100BD9
:103A0000FCF7EAFD41EC180B4648B0EE490AF0EE2F
:103A1000690A0521784400F0EAFA53EC192B51ECBD
:103A2000100BFCF7D9FD41EC100B51EC180B53ECCB
:103A3000102B002C0EDAFCF7FDFB9DED061B53EC62
:103A4000112BFCF7C9FD9DED061B53EC112BFCF768
:103A500095FC35E0FCF7EEFB9DED061B53EC112BBE
:103A6000FCF7BAFD41EC100B2F48784400EBC40082
:103A700090ED001B51EC100B53EC112BFCF77BFC71
:103A80009DED061B53EC112BFCF775FC41EC100B64
:103A90002648784400EBC40090ED001B51EC100B5D
:103AA00053EC112BFCF76AFC41EC100B002DA2BF6C
:103AB000BDEC068B02B070BD51EC100B81F00041E3
:103AC00041EC100B01E70000000010440000F07F03
:103AD000182D4454FB21F93F182D4454FB21F9BF04
:103AE0000000DC3F0000203E0000F33F000000002B
:103AF000000000000000F03F0000E63F0000000072
:103B000000000000000000400080034000000000B2
:103B1000000000000000F83F000000000000F0BFBF
:103B20009A1F0000501F0000DA1E0000921E0000C5
:103B300070B56B4E2DED040B2DED028B82B0DDF8D0
:103B40001CC0DDE905235C422CF000411C4341EA26
:103B5000D474049D22F00040B44205D86C422C433A
:103B600040EAD474B4420BD99DED061B9DED040BC5
:103B700002B0BDEC028B04B0BDE8704000F0BDBAED
:103B8000ACF14054A4F17F641C430BD0022404EA3E
:103B9000AC7444EAD27405439FED538B9FED542BD4
:103BA00007D015E09DED040B51EC100B01F060FA0D
:103BB00042E0002C11BF012C9DED040B02B0BDECC6
:103BC000028B04BF04B070BD022C38D0032C3BD054
:103BD0000B439FED491B9FED4A0B0AD0B14218D110
:103BE000B04209D121F0804120F08040079105903A
:103BF0000FE0002A15DA10E0434B7B44002C08BF8D
:103C000093ED000B0DD0012C10D0022C17D0032CFB
:103C10001AD0B0421DD1002A03DAB0EE410AF0EE0C
:103C2000610A02B0BDEC028B04B070BD93ED000BD5
:103C300051EC100B81F0004141EC100BF1E7B0EEBC
:103C4000480AF0EE680AECE7B0EE420AF0EE620ACB
:103C5000E7E7401A00153C28C8BF8DED000B19DCC2
:103C6000BCF1000FBEBF10F13C0F9FED290B8DED95
:103C7000000B0FDB9DED060B53EC102B9DED040BA1
:103C800051EC100BFCF71AFD01F02EFA01F0F0F9DF
:103C9000CDE90001002C08BF9DED000BC1D0012C27
:103CA00010D0022C9FED1C0B53EC102B9DED000B44
:103CB00051EC100B0DD0FCF75EFB53EC182BFCF70E
:103CC0005AFBB9E7019880F0004001909DED000B90
:103CD000A7E7FCF750FB53EC182BFCF74FFBABE7C7
:103CE0000000F07F00000000182D4454FB21094023
:103CF000182D4454FB2109C0182D4454FB21F9BF51
:103D0000182D4454FB21F93FC21D000000000000A3
:103D10000000000000000000075C143326A6A13C50
:103D200010B52DED040B86B09DED060B10EE100ABC
:103D300010EE901A8DED000B002818BF01200843EB
:103D400020F00040C0F17F6000F1E040C00F21D1C1
:103D50009DED080B10EE101A10EE900A8DED000B81
:103D6000002918BF0121084320F00040C0F17F6006
:103D700000F1E040C00F0DD129490798B1EB400F89
:103D800004BF0698002842D00998400004BF089854
:103D900000283CD09DED080B53EC102B9DED060B3D
:103DA00051EC100BFCF7F9FCCDE902019DED020B83
:103DB00040F2FF7110EE900A8DED000B31EA1050C9
:103DC00021D00798039900F0004001F0004188429B
:103DD00019D09DED080B8DED040B9DED020B8DEDC3
:103DE000000B10EE900A059961F31E0005909DED01
:103DF000041B9DED020B51EC110B53EC102BFCF747
:103E0000BDFACDE902019DED020B0AB010BD012003
:103E100000F06CFA0AB0BDE8104000F079B900007B
:103E20000000E0FF00B510EE101A2DED028B81B0FE
:103E3000524A6846B2EB410F2ED94FF0E640B0EB44
:103E4000410F94BF00204FF0FF3000900098B0EE7B
:103E5000408A00286ADB10F0010F4BD068EE080A98
:103E60009FED471A9FED470A00EE810A9FED461A23
:103E700010F0020F00EE801AB7EE000A00EE810A81
:103E800002BF01B0BDEC028B00BD00BF01B0B1EEBE
:103E9000400ABDEC028B00BD3C4B21F00042934236
:103EA00041D911F0004FDFED3A0A20EE201ADFED84
:103EB000390A19BF31EE601A71EE200A31EE201A6C
:103EC00071EE600ABDEEE01A11EE100A9FED321A93
:103ED00000F0030000EEC10A9FED301A009000EEE2
:103EE000C10A9FED2F1A00EEC10A9FED2E1A00EEB7
:103EF000C10AABE728EE080A9FED2B1ADFED2B0A6B
:103F000010F0020F40EE410A9FED291A00EE201A30
:103F100061EE000AB0EE480A08EE200AB6D101B000
:103F2000BDEC028B00BD00F027F98FE718EE100AF8
:103F30004000B0F17F4F0DD218EE100AFFF742FC9F
:103F4000042808BF00F010F9B0EE480A01B0BDEC3B
:103F5000028B00BD09D1012000F0C8F901B0BDEC11
:103F6000028B5DF804EB00F0F7B801B0B0EE480A40
:103F7000BDEC028B5DF804EB00F0EAB8B61F927E50
:103F8000B93AB2BACA9F2A3DDDFFFFBE490E494683
:103F900083F9223F0000004B0000C93F00A0FD391B
:103FA0000020A2331A61342C336D4C39DA82083C7C
:103FB000A0AA2ABE10B52DED028BB1EEC08A18EE74
:103FC000100A20F00040C0F1FF40C00F0AD010EEF0
:103FD000100A20F00040C0F1FF40C00F04BF0120D4
:103FE00000F084F9B0EE480ABDEC028B10BD70B54C
:103FF00004462DED028B4D1E00EBC500B0EE408A4D
:10400000F0EE608A90ED000B35F0060017D053EC0F
:10401000182B51EC100BFCF7DFFA41EC100B6D1E66
:1040200004EBC50090ED001B51EC100B53EC112B71
:10403000FCF700F941EC100B35F00600E7D1022D3A
:1040400036D0042D1CD0062D1CBFBDEC028B70BDDC
:1040500053EC182B51EC100BFCF7BEFA94ED0A1B35
:1040600053EC112BFCF7E6F853EC182BFCF7B4FAE1
:1040700094ED081B53EC112BFCF7DCF841EC100B12
:1040800053EC182B51EC100BFCF7A6FA94ED061B21
:1040900053EC112BFCF7CEF853EC182BFCF79CFAE1
:1040A00094ED040B53EC102BFCF7C4F841EC100B0F
:1040B00053EC182B51EC100BFCF78EFA94ED021B0D
:1040C00053EC112BFCF7B6F853EC182BFCF784FAE1
:1040D00094ED001B53EC112BFCF7ACF8BDEC028BFC
:1040E00041EC100B70BD10B553EC102B51EC100BC4
:1040F000FCF7A0F841EC100B10BD10B553EC112BE0
:1041000051EC100BFCF796F841EC100B10BD0000C1
:104110009FED050B10B553EC102B51EC100BFCF779
:10412000CDFA41EC100B10BD0000000000000000B3
:104130009FED050B10B553EC102B51EC100BFCF759
:104140004BFA41EC100B10BD000000000000001005
:1041500030EE000A70470000DFED020A80EEA00A90
:1041600070470000000000009FED020A20EE000AE8
:1041700070470000000000102DE9F0014FF07F4271
:10418000B2EB410F9FBF4FF0FF310160BDE8F0017E
:1041900070474FF0004242EA0123C1F3C752783A18
:1041A000551112F01F0C434CCCF120067C44C1F396
:1041B000C752A2F178024FEA621204EB820254F86D
:1041C000254008BFD2E9015612D0556804FA0CF414
:1041D00025FA06F73C43976805FA0CF527FA06F826
:1041E000D26807FA0CFCF24045EA08054CEA0206E0
:1041F000A4FB034CA5FB0352A6FB03631D449D4295
:1042000034BF012600261319334416B1934202D954
:1042100003E0934201D2012200E00022624402F155
:10422000200C9206DC0C42EA443200EE102A5B03BA
:10423000DFED210AF8EEC01A00EE103A4FEA9C1C9E
:1042400011F0004FB8EE400AC0F800C020EE201A6E
:1042500000EE105ADFED190AB8EE400A20EE200AEF
:1042600071EE810A70EE800A10EE902A02F500626B
:104270006FF30B0200EE902A70EEE11A31EEC11AD4
:10428000DFED101A30EE411A9FED0D0A20EE800A84
:1042900001EE210A9FED0C1A00EE810A04BFBDE871
:1042A000F0017047CCF180510160BDE8F001B1EE42
:1042B000400A704718180000000000360000802CEB
:1042C00022AAFD29DB0FC92F0000C92F02E008C870
:1042D000121F08C1002AFAD170477047002001E080
:1042E00001C1121F002AFBD170470000014908607C
:1042F000704700007C00002000EE900AF8EEE00A13
:1043000020EE200A704700002DE9FF5F82B00021F7
:10431000DDE90430020DDDF840B0034318D044F667
:104320001050A2F2FF3242431514119801281FD0F9
:10433000A5EB0B00401C5FEA000A4FF000064E4F51
:10434000DFF83891B046504615D5CAF1000413E0A5
:10435000119801244AA3012801D16FEA0B010298A8
:10436000119AC0E90031C0E9024206B0BDE8F09FF1
:10437000CBF10000DFE704460021404A491842EB38
:104380000450CDE9001012E0E00707D032463B466A
:1043900040464946FCF720F98046894632463B466E
:1043A00010461946FCF718F906460F466410002C13
:1043B000EAD1DDE90401DDE90023BAF1000F06DAF4
:1043C000FCF70AF942464B46FCF706F905E0FCF714
:1043D00075F942464B46FCF771F904460E46002239
:1043E000284BFCF735FA03D84FF0FF30014607E0C1
:1043F0000022254B20463146FBF71CFFFCF710FA44
:10440000102409E0002C0ADB0A220023FBF7FEFF40
:10441000039B30321A55641E50EA0102F2D1641C2B
:10442000039AC4F111031444119A012A03D0012202
:1044300008430DD10AE0084304D000204FF0110BCF
:10444000119072E7A3EB0B056D1E0DE05B4504DDDB
:104450004FF0000205F1010504E003DA4FF000021D
:10446000A5F10105002AECD002981199C0E90231AA
:10447000C0E9004579E70000000014400000F03F6B
:10448000300000000000F0430000E03F08484FF01B
:10449000E02100688969074A511AA022B1FBF2F1B4
:1044A00000EB4002C2EBC01001EBC00070470000FF
:1044B000040000200071020010B510EE100AFBF796
:1044C00060FF41EC100B9FED0A1BFFF729FC51EC3C
:1044D000100BFBF769FF00EE100AB5EEC00AF1EE13
:1044E00010FA03DADFED040A30EE200A10BD0000F6
:1044F00000000060FB211940DB0FC9402DE9FF4F90
:1045000095B09B468946064600250FE2252877D1BF
:1045100000242746F84A0121059400E0044316F8D8
:10452000013F203B01FA03F01042F7D130782A28EE
:1045300011D06FF02F033078A0F13002092A16D87D
:10454000059A44F0020402EB820203EB420210449B
:10455000761C0590EFE759F8042B0592002A03DA40
:10456000504244F40054059044F00204761C307824
:104570002E2816D116F8010F44F004042A280DD075
:104580006FF02F023078A0F13003092B09D807EB28
:10459000870302EB4303C718761CF3E759F8047B43
:1045A000761C30786C280FD006DC4C2817D0682891
:1045B0000DD06A2814D104E0742810D07A280FD1C5
:1045C0000DE044F400140AE044F4801401E044F4E3
:1045D00040147278824202D104F58014761C761C55
:1045E000307866280BD013DC582877D009DC0028F7
:1045F00075D04528F6D04628F4D047281AD19DE139
:1046000018E0632835D0642879D0652812D195E167
:10461000702873D008DC6728F1D069286FD06E2825
:104620000DD06F2806D1B5E073282CD0752875D031
:10463000782874D05A46179990476D1C75E1C4F3D9
:104640000250022809D003280DD0D9F80010042800
:104650000DD00D6009F1040967E1D9F80010EA17DF
:10466000C1E90052F6E7D9F800100D80F2E70D70AD
:10467000F0E719F8041B8DF8001000208DF80100F8
:10468000EA46012003E059F804AB4FF0FF30610720
:104690004FF0000102D40DE008F101018846B94253
:1046A0000FDA8045F8DB1AF808100029F4D108E089
:1046B00008F1010188468142FADB1AF80810002946
:1046C000F6D105985B46A0EB080721463846179AB5
:1046D00000F094FA284400EB080507E04DE029E1DA
:1046E0000DE01AF8010B5A4617999047B8F10108E6
:1046F000F7D25B4621463846179A13E142E00A2278
:104700000092C4F302524FF0000A022A08D059F86E
:1047100004CB032A4FEAEC710AD00DE029E02AE02D
:1047200009F1070121F00702F2E802C1914609E010
:104730000FFA8CFC4FEAEC71042A03D14FFA8CFC7F
:104740004FEAEC71002907DA0A460021DCF1000C7F
:1047500061EB02012D2202E0220504D52B228DF807
:104760000420012203E0E20701D02022F7E790466F
:1047700059E00A2102E010220DE010214FF0000A5A
:1047800000910BE010224FF0000A44F004040827C7
:10479000009203E008224FF0000A0092C4F3025294
:1047A000022A05D059F804CB0021032A08D009E0D9
:1047B00009F1070121F00702F2E802C1914605E084
:1047C0001FFA8CFC042A01D10CF0FF0C4FF00008FA
:1047D000220728D5702806D0009B83F0100353EAE7
:1047E0000A0305D00EE040228DF80420012208E0E3
:1047F0005CEA010206D030228DF804208DF8050015
:1048000002229046009B83F0080353EA0A030AD170
:104810005CEA010201D1620705D530228DF804203F
:104820004FF001087F1E582804D034A003900EA832
:1048300002900DE036A0F9E753466046009AFBF778
:10484000E5FD84460398825C0298401E0290027047
:104850005CEA0100F0D1029806A9081A00F1200ACA
:10486000600702D524F4803400E00127574502DDBB
:10487000A7EB0A0000E0002000EB0A010090059879
:104880004144401A0590E00306D45B462146179A3E
:10489000059800F0B3F90544002706E001A85A4640
:1048A000C05D179990476D1C7F1C4745F6DBE00300
:1048B0000CD55B462146179A059800F09FF90544F0
:1048C00004E030205A46179990476D1C0099481E05
:1048D00000900029F5DC08E0029802995A46007819
:1048E000491C0291179990476D1CBAF10001AAF179
:1048F000010AF1DC65E100000928010030313233A2
:10490000343536373839616263646566000000000B
:1049100030313233343536373839414243444546F5
:104920000000000000F058F90544761C307800289B
:104930007FF4ECAD19B02846BDE8F08F620700D4D3
:10494000062709F1070222F0070CFCE80223E146E2
:1049500003F000485FEA080C02D00FF2702C0DE063
:104960005FEA045C02D50FF2682C07E05FEAC47CC2
:1049700002D00FF2602C01E0AFF2700C4FF0FF3864
:1049800023F00043CDF850C065280CD006DC452844
:1049900009D046281DD047283DD13DE0662818D0D3
:1049A00067287ED138E00021112F01DB112000E0C3
:1049B000781CCDE9000106A90EA8FFF7A5FCDDE9EA
:1049C0000F010E9A03910021009207F1010A049150
:1049D0004DE04FF000400097CDE9011006A90EA868
:1049E000FFF792FCDDE90F0203920E9B1199002262
:1049F000DDF80CA00093049211B9791C00EB010AB8
:104A0000B7EB0A0004D4C0F1FF3007F1010A0490AB
:104A1000AAEB0700019044E0012F00DA01270021F2
:104A2000112F01DD112000E03846CDE9000106A973
:104A30000EA8FFF769FCDDE90F010E9A0391002132
:104A400004910092BA4621070CD40399514500DA2B
:104A50008A46BAF1010F05DD009AAAF10101515C05
:104A6000302908D0B84202DA10F1040F06DA012129
:104A7000CDE9011015E0AAF10101E9E7002805DC04
:104A8000049901440491AAEB000102E0411C514544
:104A900000DD8A460499401A401C01904FF0004006
:104AA0000290200704D40198504501DBCDF8048022
:104AB00000208DF84F0002980DF14F07B0F1004F24
:104AC00025D02B200E9002984FF0020800280CDA17
:104AD000404202902D200E9007E00A210298FBF739
:104AE0007FFC3031029007F8011DB8F10001A8F1F8
:104AF0000108F2DC02980028EFD1791E0E980870A8
:104B0000307800F0200040F0450007F8020D12A8B0
:104B1000C01B00F107081498007800B1012000EBD9
:104B20000A01019801EBE07105984144401A401ECA
:104B30000590E00306D45B462146179A059800F0DD
:104B40005DF805441498007818B15A4617999047B3
:104B50006D1CE00324D55B462146179A059800F0AA
:104B60004DF805441CE00498002807DBDDE903014B
:104B7000884203DD0098405C179901E017993020C6
:104B80005A469047049805F10105401C049001988D
:104B9000401E019004D12E205A46179990476D1C53
:104BA000BAF10001AAF1010ADDDC05E017F8010BFA
:104BB0005A46179990476D1CB8F10001A8F10108F9
:104BC000F4DC5B462146179A0598ABE62D00000001
:104BD0002B000000200000002DE9F04104460025D4
:104BE0001E461746880404D405E039462020B04705
:104BF0006D1C641EF9D52846BDE8F0812DE9F04111
:104C0000044600251E469046C80301D5302700E023
:104C10002027880404D505E041463846B0476D1C7E
:104C2000641EF9D52846BDE8F081000070B52DED71
:104C3000068B81A0FEF79EFD854CDFED869ADFEDA9
:104C400086AA206808B185A0AEE000264FF4FA7568
:104C50009FED88AAB0EE6A8ADFED878A00EE106ABF
:104C6000B8EEC00A60EE280A80EE8A0AF0EE480A22
:104C700030EE291A94ED030A00F0C6FC0220FBF77F
:104C800083FE761CAE42E9DD00F046FAB0EE409AB3
:104C9000F0EE48AA00EE105AB8EEC00A60EE280AFC
:104CA00080EE8A0AF0EE6A0A30EE291A94ED030AC1
:104CB00000F0AAFC0220FBF767FE6D1EEAD500F0AB
:104CC0002BFAB0EE408AB0EE6A0AB0EE401AF0EE6F
:104CD000400A00F099FCC820FBF756FE19EE100AB6
:104CE000FBF74FFB41EC100B64A053EC102BFEF7CD
:104CF00041FD18EE100AFBF744FB41EC100B64A0D9
:104D000053EC102BFEF736FD39EE480AB4EE489A04
:104D1000B0EEC0AAF1EE10FA04D01AEE100A614902
:104D200088420CDA60A0FEF725FD002210214FF02A
:104D30009040FBF75FFF0020BDEC068B70BDB4EE2A
:104D4000C89AF1EE10FA05D262A0FEF713FD4FF0FB
:104D5000FF3003E067A0FEF70DFD012020606CA08E
:104D6000FEF708FD94ED040AF8EEC00AB0EE680AFA
:104D70001AEE200AB0EEC00A10EE100AB0F17C5F05
:104D800011DD67A0FEF7F6FC88EE8A0AF6EE000A4F
:104D900069A030EE200ABDEEC00A10EE101A2161A3
:104DA000FEF7E8FC02E066A0FEF7E4FC664D95ED38
:104DB000000AB5EEC00AF1EE10FA38D1B0EE6A8AF8
:104DC000B0EE691AF0EE480A94ED030A00F01CFCFC
:104DD0004FF42F70FBF7D8FD00F09EF9D4ED000AD8
:104DE0002069F8EEE00A20EE200AFFF785FAFFF7C7
:104DF00063FB85ED000A1420FBF7C6FD53A0FEF708
:104E0000B9FC2868FBF7BDFA41EC100B55A053EC38
:104E1000102BFEF7AFFCB0EE481AF0EE480AB0EEE9
:104E2000480A00F0F1FBC820FBF7AEFD02E04FA0FE
:104E3000FEF7A0FC01207FE74D4F543A20416C69FA
:104E4000676E2073656E736F722E0D0A000000008E
:104E500018000020E4CB9640000000004D4F543A6B
:104E600020536B6970206469722063616C69622EE3
:104E70000D0A00000000FA43DB0FC9406D69645F52
:104E8000616E676C653D252E34660D0A00000000DA
:104E9000656E645F616E676C653D252E34660D0A34
:104EA000000000000AD7233C4D4F543A2046616968
:104EB0006C656420746F206E6F74696365206D6F1C
:104EC00076656D656E74206C6F6F703232322E0DA8
:104ED0000A0000004D4F543A2073656E736F725F85
:104EE000646972656374696F6E3D3D4343570D0A93
:104EF000000000004D4F543A2073656E736F725F6F
:104F0000646972656374696F6E3D3D43570D0A00B5
:104F10004D4F543A20505020636865636B3A20002F
:104F20006661696C202D20657374696D61746564B8
:104F30002070703A0000000025640D0A0000000097
:104F40004F4B210D0A000000400000204D4F543A05
:104F5000205A65726F20656C65632E20616E676CE8
:104F6000653A0000252E34660D0A00004D4F543A74
:104F700020536B6970206F66667365742063616C83
:104F800069622E0D0A00000010B52DED028BB0EE07
:104F9000408AFFF77BFA3049DFED300A4A69821A0E
:104FA00000EE102AB8EE400A20EE200AB5EEC00A44
:104FB000F1EE10FA04D910EE102AB2F17C5F01DD97
:104FC0009FED270A274A486191ED061A92ED002AC3
:104FD000DFED268A61EE002A78EE421A2248F0EED2
:104FE000E10AF4EEE20AF1EE10FA1CDDF5EEC01A69
:104FF000F1EE10FA02D24FF0FF3307E0F5EEC01ADF
:10500000F1EE10FA01DD012300E0002300EE903AFA
:10501000F8EEE00A60EE810A00EE802A82ED002AB6
:1050200080ED001A03E082ED008AC0ED008A91ED68
:10503000038A086992ED000AFFF75EF9B0EE401AA4
:10504000F0EE680AB0EE480A00F0DEFAB0EE480A68
:10505000BDEC028B10BD000018000020BD37863566
:105060006F12833A3C00002048000020000000003E
:1050700010B541EC100BFEF7EFFB51EC100B10BD1F
:105080003EB5002001900B200C2400908DF80840C4
:105090006C2102AA01230848FBF7FCFE01AA0223A7
:1050A0006D2105480094FBF763FEBDF8040040BA8B
:1050B000C0F30B003EBD0000D400002008480949A1
:1050C00090ED010AD0ED000A70EE200A91ED000A81
:1050D000B8EEC01A90ED020A10EE810AFFF7ECB9A3
:1050E000380000202800002082B0CDE9000121F026
:1050F000004001909DED000B02B051EC100B704789
:10510000044AC1B29162D169C1F3C0110029FAD039
:10511000704700000044004010B500F061F82849D5
:105120008A68821A01D4134600E0534200EE103A16
:10513000DFED241AF8EEC00A91ED000AB8EEC01AAD
:1051400021EE211ADFED201AF4EEC10AF1EE10FA79
:105150000CDD002A02DDDFED1D0A01E0F0EE610A40
:1051600091ED041A70EE810AC1ED040A8860184BB3
:105170000A69DFED180A9FED181A9A4207DBC1EDA4
:10518000040A91ED032A32EE412A81ED032A134BE2
:105190000A699A4207D3C1ED040AD1ED030A70EE01
:1051A000810AC1ED030A00EE900AB8EEC00AF8EEDB
:1051B000E00A80EE801A91ED040A01EE210A10BD8A
:1051C00064000020CDCC4C3FDB0FC940DB0FC9C0D1
:1051D0007C594446000000007C5944467C5944C632
:1051E00010B5FFF74DFFC0F30B0010BD70B52DEDEE
:1051F000028BFFF74BF9144C0546DFED140A60688B
:10520000281A00EE100AB8EEC00A20EE208AB5EE89
:10521000C08AF1EE10FA04D918EE100AB0F17C5FE2
:1052200001DD9FED0B8AFFF777FFD4ED030A84EDD4
:10523000030A656030EE601AC1EE080ABDEC028B0D
:10524000B0EE600A70BD000064000020BD378635F6
:105250006F12833A134810B50078042820D0032831
:105260001ED000F0BFFA104880ED000AFFF726FFBD
:105270000E4C0F4884ED000A007830B1012804D0AC
:10528000022802D00BA0FEF775FA134894ED001A1D
:10529000D0ED000A90ED010ABDE8104000F0B4B96D
:1052A00010BD0000610000203C00002044000020F0
:1052B000600000204D4F543A206E6F20746F727161
:1052C000756520636F6E74726F6C2073656C6563B7
:1052D000746564210D0A000058000020FBF78EFF62
:1052E000FDF75EFFFDF752FBFDF710FBFDF7BAF986
:1052F000FDF768FAFDF7C2FBFDF70EFCFDF792FB28
:10530000FDF760FCFDF762FBFBF7F0FA0021304887
:10531000FCF78CFB00212F48FCF788FB04212D486B
:10532000FCF784FB4FF47A70FBF72EFBFDF742FD90
:10533000FDF736F9FDF7E4FD2748B2EE080A2749E4
:1053400080ED000A072008602548B7EE000A2949C9
:1053500080ED000A2348B1EE020A2B4C80ED000AD2
:105360002148B3EE040A012280ED000A20489FED97
:105370001F0A80ED000A002008701F490220B3EECA
:105380000E0A08701D48102180ED030A1D489FED8C
:105390001C0A80ED000AB2EE040A84ED000A4FF008
:1053A0009040FBF727FCFDF71FFD00209FED170A3B
:1053B000FDF750FD16A0FEF7DDF900F0B7F800BFCD
:1053C00094ED000A00F02CF8FFF744FFF8E7000026
:1053D00028010020740100201C000020280000206B
:1053E000240000202000002030000020CDCC4C3EC6
:1053F0003400002060000020610000207C030020B9
:105400006F12833A280300200000002000000000F3
:105410004D6F746F722072656164792E0D0A000001
:105420002DE9F0412DED028BB0EE408A00F0EEF94F
:10543000DFF898802648274F88ED000A0178264C2F
:105440002648274DDFED278A274E052908D2DFE8B9
:1054500001F0031F0E2B3200387828B186ED008A48
:10546000BDEC028BBDE8F08184ED018AF8E780EDA8
:10547000008A1E4890ED000A1D4838EE400AFDF7EC
:1054800097FD85ED000AD8ED000A30EE600A03E0D2
:1054900038EE400A85ED008A1648FDF789FD86ED55
:1054A000000A387868B1DBE7B0EE480A85ED000AFB
:1054B00000F0BEF905E0B0EE480A80ED000AFFF703
:1054C00063FD84ED010AC4ED008AC9E748000020AD
:1054D00061000020600000205800002054000020DF
:1054E00050000020000000004C0000203C00002084
:1054F000A00300207C03002070B5002404F1B0005C
:10550000C0B200F05DF8002000F05AF8102000F062
:1055100057F80025002000F065F86D1CEDB2802DD5
:10552000F8D3641CE4B2042CE8D370BD10B5AE20EF
:1055300000F046F8D52000F043F8802000F040F855
:10554000A82000F03DF81F2000F03AF8D32000F02A
:1055500037F8002000F034F8402000F031F88D20BA
:1055600000F02EF8142000F02BF8A12000F028F80D
:10557000C82000F025F8DA2000F022F8002000F022
:105580001FF8812000F01CF88F2000F019F8D920B6
:1055900000F016F81F2000F013F8DB2000F010F8E0
:1055A000402000F00DF8A42000F00AF8FFF7A4FF57
:1055B000AF2000F005F8BDE810406420FBF7E4B927
:1055C00001B584B001214FF0FF3204A88DE8070037
:1055D0000B46002278210248FBF702FD05B000BD12
:1055E0008000002001B584B001214FF0FF3204A8F3
:1055F0008DE807000B46402278210248FBF7F0FCBB
:1056000005B000BD8000002010B56E4C2DED068B5E
:10561000F0EE608AF0EE419AF5EEC08AB0EE408A74
:10562000F1EE10FA2CD028EEA80A08EE080AFEF7D0
:10563000C1FCD4ED010A18EE900A80EE209AFAF728
:10564000A0FE41EC1A0B18EE100AFAF79AFE41EC94
:10565000100BB0EE4A1AF0EE6A1AFEF769FAB0EED5
:10566000408AF0EE608A19EE900AFAF78AFE53EC4F
:10567000182BFAF7DFFDFAF797FE00EE100A07E0A5
:1056800094ED010A88EE009A9FED4F0A39EE800AE8
:10569000FEF712FFF0EE408ADFED4C9AB7EE00AA5B
:1056A000F0EE680A88EEA90A30EE0A0ABCEEC00ADB
:1056B00010EE104A00EE104AB8EE400A50EE290AE9
:1056C000B0EE600AFEF7AEFBDFED41AA20EE2A0A3B
:1056D00020EE098A00EE104AB8EE400A70EE4A0A3F
:1056E000B0EE680A00EEE90AFEF79CFB20EE2A0AFB
:1056F000F6EE001A072C20EE092A3AEE480A30EEA0
:10570000421A3AD2DFE804F039040B161D273000A4
:1057100078EE020AB0EE420A41EE210A05E0F0EE10
:10572000480A38EE020A41EE210A21EE212A01EE52
:10573000210A28E038EE020A61EE210A01EE210A70
:1057400006E0B0EE480A61EE210A01EE210A08E007
:1057500001EE212A17E0F0EE420A21EE210A41EE85
:10576000210A38EE022AF3E778EE020A21EE210A36
:10577000B0EE482A41EE210AEAE79FED160AF0EE64
:10578000400AB0EE402A9FED141A144960EE810AD7
:105790000968FCEEE00A10EE900A486320EE010A68
:1057A0000F48BCEEC00A026810EE101A516322EED8
:1057B000010A0068BCEEC00A10EE101A8163BDEC4D
:1057C000068B10BD18000020DB0FC93F920A863FF0
:1057D000D7B3DD3F0000000000007A44280100201C
:1057E0007401002010B5FFF797FC0648F0EE400A60
:1057F00090ED000A044890ED001AB8EEC11A11EEBF
:10580000200A10BD380000201800002010B5FFF756
:10581000EDFC0548FCF7E6FE0448D0ED000AF8EE82
:10582000E00A20EE200A10BD280300201800002006
:1058300070B52DED028BB0EE408AFEF727FE1C4CB2
:10584000DFED1C0A6169411A00EE101AB8EE400A39
:1058500020EE200AB5EEC00AF1EE10FA04D910EEDF
:10586000101AB1F17C5F01DD9FED130A134D6061E9
:10587000D5ED000A48EE000AB0EE600AFEF71CFE05
:105880000F4885ED000A80ED008A94ED038A2069B7
:10589000FEF732FDB0EE401ADFED0A0AB0EE480A1C
:1058A000FFF7B2FEB0EE480ABDEC028B70BD0000FF
:1058B00018000020BD3786356F12833A3C00002067
:1058C0004800002000000000081C3044586C081CF0
:1058D0003044586C081C3044586C00000100000033
:1058E00002000000040000000600000008000000A4
:1058F0000A0000000C000000100000002000000062
:1059000040000000800000000001000000000000D6
:10591000000000000102030406070809000000005F
:1059200001020304000000004FBB610567ACDD3FCE
:10593000182D4454FB21E93F9BF681D20B73EF3FB6
:10594000182D4454FB21F93FE2652F227F2B7A3C2E
:10595000075C143326A6813CBDCBF07A8807703CE7
:10596000075C143326A6913CC4EB98999999C9BF5A
:10597000711623FEC671BCBF6D9A74AFF2B0B3BF8F
:105980009AFDDE522DDEADBF2F6C6A2C44B4A2BF4F
:105990000D5555555555D53FFF8300922449C23FBB
:1059A0006E204CC5CD45B73F513DD0A0660DB13FEF
:1059B000EB0D76244B7BA93F11DA22E33AAD903F01
:1059C0000000000000000000000000006E83F9A24B
:1059D0002915444ED15727FCC0DD34F5999562DB7B
:1059E0004190433CAB6351FE085A00080000002080
:1059F00080000000CC420008885A00088000002087
:105A000048130000DC4200080000004000000000D5
:105A10001000000001000000000000000024F4005D
:105A20000000000000000000000000000000000076
:105A30000000000000000000000000000000000066
:105A40000000000000000000000000000000000056
:105A50000000000000000000000000000000000046
:105A60000000000000000000000000000000000036
:105A70000000000000000000000000000000000026
:085A800000000000000000001E
:04000005080001D915
:00000001FF
